:1000000066C180C17FC17EC17DC17CC17BC17AC117
:1000100079C178C177C160C28BC274C173C172C12A
:1000200071C170C16FC11FC97BC710C979C778C7BB
:1000300077C776C775C774C773C701C971C71CC9AD
:10004000F6C86EC76DC76CC76BC76AC769C768C794
:1000500067C766C765C764C763C762C761C778C833
:100060005FC774C856C85CC75BC75AC759C758C76B
:1000700057C756C755C754C753C752C751C750C7AC
:100080004FC74EC74DC74CC74BC74AC749C748C7DC
:1000900047C746C745C744C743C742C741C740C70C
:1000A0003FC73EC73DC73CC73BC73AC739C738C73C
:1000B00037C736C735C734C733C732C731C7E6C7B6
:1000C0002FC72EC72DC72CC72FC8D1C78FC778A45D
:1000D0006AD756B7C7E8DB702024EECEBDC1AF0F9C
:1000E0007CF52AC68747134630A8019546FDD89867
:1000F0008069AFF7448BB15BFFFFBED75C892211EB
:10010000906B937198FD8E4379A62108B4496225BE
:100110001EF640B340C0515A5E26AAC7B6E95D102C
:100120002FD65314440281E6A1D8C8FBD3E7E6CD0D
:10013000E121D60737C3870DD5F4ED145A4505E9FB
:10014000E3A9F8A3EFFCD9026F678A4C2A8D4239E4
:10015000FAFF81F6718722619D6D0C38E5FD44EA56
:10016000BEA4A9CFDE4B604BBBF670BCBFBEC67E43
:100170009B28FA27A1EA8530EFD4051D880439D0E1
:10018000D4D9E599DBE6F87CA21F6556ACC44422BD
:1001900029F497FF2A43A72394AB39A093FCC359B2
:1001A0005B6592CC0C8F7DF4EFFFD15D84854F7E33
:1001B000A86FE0E62CFE144301A3A111084E827E35
:1001C00053F735F23ABDBBD2D72A91D386EB07005D
:1001D00000000C00000011000000160000000700E5
:1001E00000000C00000011000000160000000700D5
:1001F00000000C00000011000000160000000700C5
:1002000000000C00000011000000160000000500B6
:100210000000090000000E000000140000000500AE
:100220000000090000000E0000001400000005009E
:100230000000090000000E0000001400000005008E
:100240000000090000000E0000001400000004007F
:1002500000000B0000001000000017000000040068
:1002600000000B0000001000000017000000040058
:1002700000000B0000001000000017000000040048
:1002800000000B0000001000000017000000060036
:1002900000000A0000000F0000001500000006002A
:1002A00000000A0000000F0000001500000006001A
:1002B00000000A0000000F0000001500000006000A
:1002C00000000A0000000F000000150000001124CB
:1002D0001FBECFE5D4E0DEBFCDBF12E0A0E6B0E0A8
:1002E000E8EDF8E102C005900D92AA32B107D9F706
:1002F00023E0AAE2B2E001C01D92A633B207E1F703
:10030000D1D5E8CA7DCEC198B99AAC9AAB9A81B3DF
:100310008C6F81BB84B3836084BB089581B3837089
:1003200081BB84B38C7F84BBAB98AC98B99AC19ADB
:10033000089525B3382F33702C7F232B25BB22B390
:100340008C7F2370822B82BB000000000000C29AC9
:100350000000C2980000000085B3292F23708C7F15
:10036000822B85BB82B39C7F8370982B92BB00004D
:100370000000C09A0000C0980000000085B38C7F88
:1003800085BB82B3837082BB00000895CF93C62FD4
:10039000D0DF85B39C2F93708C7F892B85BB82B374
:1003A0006C2F6C7F8370682B62BB00000000000024
:1003B000AA980000AA9A0000000085B38C7F85BB34
:1003C00082B3837082BB0000CF910895B2DF84B303
:1003D0008C7F84BB81B3837081BB85B3836085BB15
:1003E00082B38C6F82BB000000000000AC9800005C
:1003F00093B320B3AC9A000084B3836084BB81B311
:100400008C6F81BB2C7F892F8370822B089582EAA9
:1004100090E0F6D086EC90E0F3D086ED90E0F0D05E
:1004200080E091E0EDD081E291E0EAD088E391E0D4
:10043000E7D08CE491E0E4D089E691E0E1D08BE76D
:1004400091E0DED089E891E0DBD088E991E0D8D076
:1004500086EB91E0D5C0FF920F931F93CF93DF936C
:10046000CDB7DEB7A8970FB6F894DEBF0FBECDBFED
:10047000F82E00E010E004C00F5F1F4F17FD29C0E9
:10048000C801A4DF8F15C1F31F928F931F92FF92B3
:100490001F930F9386ED91E09F938F938E010F5FD3
:1004A0001F4F1F930F933ED7C801AAD00FB6F894E1
:1004B000DEBF0FBECDBF8FEF9FEFA8960FB6F894AB
:1004C000DEBF0FBECDBFDF91CF911F910F91FF9087
:1004D000089580E090E0F1CF1F920F920FB60F9237
:1004E00011242F938F939F93EF93FF938BB12CB194
:1004F0008871E0913302EF5FEF7790913202E91754
:10050000A9F0E0933302F0E0EA5CFD4F2083909184
:100510003102892B80933102FF91EF919F918F914E
:100520002F910F900FBE0F901F90189582E0EFCF84
:100530001F920F920FB60F9211248F939F93EF93F8
:10054000FF9390913502809134029817A1F0E091C9
:100550003402EF5FEF77E0933402F0E0EA54FD4FAE
:1005600080818CB9FF91EF919F918F910F900FBE79
:100570000F901F9018955598F5CF10923502109254
:100580003402109233021092320297FF02C022E02E
:100590002BB9907890BD89B988E98AB986E880BD81
:1005A000089590913302809132029817A9F09091AA
:1005B00032029F5F9F77E92FF0E0EA5CFD4F2081D8
:1005C00080913102909332021092310290E0982F84
:1005D0008827820F911D089580E091E00895209171
:1005E00035022F5F2F77909134022917E1F3E22F24
:1005F000F0E0EA54FD4F808320933502559A089528
:10060000FC0130813323A9F0DC01119620913502E1
:100610002F5F2F77909134022917E1F3E22FF0E05A
:10062000EA54FD4F308320933502559A3D913111A4
:10063000EDCF0895AC014F5F5F4FFC012491222361
:10064000A9F0FA01909135029F5F9F778091340263
:100650009817E1F3A92FB0E0AA54BD4F2C939093C3
:100660003502559A249131962111ECCF08958F923D
:100670009F92AF92BF92CF92DF92EF92FF920F9331
:100680001F936B017C01022E04C0CC0CDD1CEE1C00
:10069000FF1C0A94D2F749015A010027112798013B
:1006A000081919092A093B090F7111272227332735
:1006B00004C096958795779567950A95D2F76C292A
:1006C0007D298E299F291F910F91FF90EF90DF9038
:1006D000CF90BF90AF909F908F900895FC011082B3
:1006E000118212821382148215821682178281E08F
:1006F00093E2A5E4B7E680879187A287B38789E86C
:100700009BEAADECBFEE84879587A687B7878EEF0F
:100710009CEDAAEBB8E9808B918BA28BB38B86E71B
:1007200094E5A2E3B0E1848B958BA68BB78B0895FB
:100730002F923F924F925F926F927F928F929F92F1
:10074000AF92BF92CF92DF92EF92FF920F931F93DF
:10075000CF93DF93CDB7DEB7A8970FB6F894DEBF7F
:100760000FBECDBF9A8B898B788B6F87DC010D9183
:100770001D912D913C9113970B8B1C8B2D8B3E8BD8
:1007800014960D911D912D913C9117970F8B188FF9
:10079000298F3A8F18960D911D912D913C911B97A1
:1007A0000B8F1C8F2D8F3E8F1C960D911D912D91BF
:1007B0003C911F970F8F18A329A33AA30EEC11E0C9
:1007C0001C830B832EEC30E03A8329838F8C98A016
:1007D000A9A0BAA04B8C5C8C6D8C7E8CCF88D88CF9
:1007E000E98CFA8C8B899C89AD89BE898B879C8723
:1007F000AD87BE871A861986A5E0B0E0BE83AD83BB
:1008000001E010E018870F83212C312CA0C081302B
:10081000910508F4D9C0029709F0BDC0D701C601FF
:1008200084259525A625B7259C01AD0128253925C8
:100830004A255B252DA33EA34FA358A78D819E81FA
:100840008F709927EB81FC81459155916591749149
:10085000E981FA810591159125913491DC01AA0F66
:10086000BB1FAA0FBB1F8F8598898A0F9B1F9CA354
:100870008BA38DA19EA1AFA1B8A5800F911FA21F30
:10088000B31FEBA1FCA10081118122813381800F74
:10089000911FA21FB31F0B851C852D853E85800FE0
:1008A000911FA21FB31F8C019D01042E04C0000FD5
:1008B000111F221F331F0A94D2F77095609550952F
:1008C00041955F4F6F4F7F4F4F71552766277727B1
:1008D00004C0B695A795979587954A95D2F7802B32
:1008E000912BA22BB32B8C0D9D1DAE1DBF1D1FEF99
:1008F000211A310A2B813C812C5F3F4F3C832B8393
:1009000049815A814C5F5F4F5A8349830F81188513
:100910000B5F1F4F18870F832D813E812D5F3F4F47
:100920003E832D8349855A85495F5F4F5A874987A2
:100930008B869C86AD86BE8650E42516310409F46C
:1009400059C053014201260137016C017D01C101EB
:10095000929582958F7089279F70892781309105A4
:1009600009F055CFD701C60184259525A625B725C1
:1009700088219921AA21BB218C019D0104251525DF
:10098000262537250DA31EA32FA338A78F81988571
:100990008F70992757CFD501C40180959095A09568
:1009A000B0958C299D29AE29BF298C019D01042574
:1009B0001525262537250DA31EA32FA338A7898526
:1009C0009A858F7099273ECFD301C201882599253A
:1009D000AA25BB258C219D21AE21BF219C01AD0103
:1009E000282539254A255B252DA33EA34FA358A7CB
:1009F000C10128CF0B891C892D893E89800E911E4B
:100A0000A21EB31EE989FA8980829182A282B382F2
:100A10000F89188D298D3A8D800F911FA21FB31F4A
:100A200084839583A683B7830B8D1C8D2D8D3E8D7E
:100A3000C00ED11EE21EF31EC086D186E286F3866A
:100A40000F8D18A129A13AA1400E511E621E731EDE
:100A50004486558666867786A8960FB6F894DEBFDC
:100A60000FBECDBFDF91CF911F910F91FF90EF90FF
:100A7000DF90CF90BF90AF909F908F907F906F90BE
:100A80005F904F903F902F9008954F925F926F929A
:100A90007F928F929F92AF92BF92CF92DF92EF920E
:100AA000FF920F931F93CF93DF93CDB7DEB7C85458
:100AB000D1090FB6F894DEBF0FBECDBFDC014B01EC
:100AC0003A014C9022964FAE229711965C90119766
:100AD00023965FAE239712968C91129724968FAF30
:100AE000249713964C90139725964FAE25971496FE
:100AF0005C90149726965FAE269715968C91159765
:100B000027968FAF279716964C90169728964FAE3C
:100B1000289717965C90179729965FAE299723968A
:100B2000EEADFFAD2397EF73FF27930140E050E058
:100B300060E070E080E090E02296AFAC22972396D0
:100B4000BFAC23972496CFAC24972596DFAC25978E
:100B50002696EFAC26972796FFAC27978201D0D335
:100B60002C9311963C93119712964C9312971396CF
:100B70005C93139714966C93149715967C93159722
:100B800016968C93169717969C9317976114710479
:100B900009F442C053017D016401A80CB91C8D0108
:100BA000085A1F4F4D0188E0880E911CCF01019615
:100BB000D6012D916D01EE0DFF1D208F9C012F732D
:100BC0003327232B09F040C0F70178969E012F5F51
:100BD0003F4F4381828190E0A0E0B0E0DC019927A3
:100BE0008827B42B4081842B41812C013D01542A5C
:100BF000D9014D925D926D927D929D0134960E17B2
:100C00001F0739F7BE016F5F7F4FC40191DDE0E040
:100C1000F0E0CA14DB0451F6C85BDF4F0FB6F8945E
:100C2000DEBF0FBECDBFDF91CF911F910F91FF901F
:100C3000EF90DF90CF90BF90AF909F908F907F907C
:100C40006F905F904F900895FC01E3CF8F929F9239
:100C5000AF92BF92CF92DF92EF92FF920F931F93CA
:100C6000CF93DF93CDB7DEB7C854D1090FB6F89450
:100C7000DEBF0FBECDBF4C01FC01808191818F731F
:100C800099278833910508F0AEC008E310E0081BEF
:100C9000190BA80162E670E0C401F7DE980140E09C
:100CA00050E060E070E0CB0122960FAF22972396D0
:100CB0003FAF239724964FAF249725965FAF259794
:100CC00026966FAF269727967FAF279728968FAFE8
:100CD000289729969FAF2997F4012081318142817D
:100CE000538164817581868197812296AFAC22976A
:100CF0002396BFAC2397C12CD12CE12CF12C00E022
:100D000010E007D369012083D18242835383648337
:100D10007583868397837896DE011196740120E5AA
:100D2000E20EF11CB380028110E020E030E0980177
:100D3000112700273B29B0800B29B1801B290D9377
:100D40001D932D933D933496EE15FF0559F78601BB
:100D50009A01000F111F221F331F000F111F221FA6
:100D6000331F000F111F221F331F09AF1AAF2BAF04
:100D70003CAF960103E08DD200E2A6D22DAF3EAF8C
:100D80004FAF21965FAF21978401085F1F4FBE01CF
:100D90006F5F7F4FC801CCDCD801F401E85AFF4FE8
:100DA00038E6830E911C4D915D916D917D9140834C
:100DB00051836283738334968E169F06A1F7C85BB6
:100DC000DF4F0FB6F894DEBF0FBECDBFDF91CF91DE
:100DD0001F910F91FF90EF90DF90CF90BF90AF9059
:100DE0009F908F90089508E710E0081B190B51CFD2
:100DF0000F931F93CF93DF93CDB7DEB7C856D109BA
:100E00000FB6F894DEBF0FBECDBF8B0119821A82D8
:100E10001B821C821D821E821F82188641E053E2C3
:100E200065E477E649875A876B877C8749E85BEA00
:100E30006DEC7FEE4D875E876F87788B4EEF5CEDB4
:100E40006AEB78E9498B5A8B6B8B7C8B46E754E5D0
:100E500062E370E14D8B5E8B6F8B788FFC010190AC
:100E60000020E9F73197AF01481B590BBC01CE01B7
:100E700001960BDECE010196E9DE80E1FE01E75A24
:100E8000FF4FD80101900D928A95E1F7C859DF4FC5
:100E90000FB6F894DEBF0FBECDBFDF91CF911F918B
:100EA0000F910895CF93DF93CDB7DEB7C85AD1091C
:100EB0000FB6F894DEBF0FBECDBF87E087BB8CE3D3
:100EC00084BB82E081BB88BB84E085BB12BA1BDA9D
:100ED0008AE190E052DB789400E010E06FEFC80107
:100EE00055DA0F5F1F4F17FFF9CF91DA17DA9E011E
:100EF0002F5F3F4F5901AE0147595F4F4A01CE0165
:100F000087559F4F6C0180E090E81C01241A350A38
:100F100029E0622E22E0722E3CE0432E32E0532E76
:100F200040DBFC018827892BD9F7FE2E80ED8E0F40
:100F30008A3038F08FE98E0F863008F042C089EA97
:100F40008E0F2091600030916100232BD1F420910D
:100F50002D0230912E0222953295307F3227207F4C
:100F60003227F901E82BCF0190932E0280932D02B6
:100F700080912B0290912C02892B91F68F2D2FDBE3
:100F8000CFCF60912A02F0E16F9FB0011124682B4E
:100F900060932A0280912F028F5F80932F0282300C
:100FA00038F38091300281116EC180912D029091B1
:100FB0002E02019690932E0280932D0210922F0202
:100FC000D7CF8FEB8E0F863018F489EC8E0FB9CF08
:100FD0008E2FEE0F990BAA0BBB0BFC01B197E435DA
:100FE000F10508F09DCFED5EFF4F0994809130022E
:100FF000882309F495CF00E010E060E0C801C6D96D
:101000000F5F1F4F17FFF9CF80E025DA892B09F01A
:1010100087CF00E010E065E5C801B8D90F5F1F4F2A
:1010200017FFF9CF85E517DA892B09F079CF00E0B2
:1010300010E06AEAC801AAD90F5F1F4F17FFF9CF66
:101040008AEA09DA892B09F06BCF00E010E06FEF34
:10105000C8019CD90F5F1F4F17FFF9CF8FEFFBD946
:10106000892B09F05DCF8EE192E0CADA59CF8091E9
:101070003002882309F454CF00E010E06FEFC8017C
:1010800085D90F5F1F4F17FFF9CF72CF80913002C4
:10109000882309F445CFC50121DBEE24FF24E8189D
:1010A000F9088401C8018E0D9F1D90D9F801819324
:1010B0008F01EC15FD05B1F740E450E0B401C50126
:1010C000E4DCF0E4EF0EF11CE214F30451F7C50187
:1010D000BDDD83E192E094DA8E01075A1F4FF801DB
:1010E00081918F011F928F9329E132E03F932F93DB
:1010F0009F928F9217D1C40183DA0F900F900F90B7
:101100000F900F900F900815190549F78AE067DADC
:1011100007CF109261001092600010922F02809110
:101120002B0290912C0228CFC198B99A3FEF40E74B
:1011300052E0315040405040E1F700C00000B99803
:10114000C19A80912B0290912C0216CF60D9E8CEE3
:1011500080913002882309F4E3CEE12CF12C8091B8
:101160002D0290912E028E0D9F1D97FD5BC09F93C7
:101170008F9322E032E03F932F93BF92AF92D2D071
:10118000C5013EDA80912D0290912E028E0D9F1D99
:101190001DD90F900F900F900F900F900F9000E0BF
:1011A00010E07F926F921F928F935F924F92BF9247
:1011B000AF92B8D0C50124DA0F5F1F4F80912D0286
:1011C00090912E02800F911F8E0D9F1DFFD80FB69C
:1011D000F894DEBF0FBECDBF0F30110511F725ED1E
:1011E00031E03F932F931F928F938CE092E09F9377
:1011F0008F93BF92AF9296D0C50102DA8AE0EFD901
:10120000F0E1EF0EF11C0FB6F894DEBF0FBECDBFBC
:10121000E11431E0F30609F0A2CF80912D02909104
:101220002E02939590932E0280932D0279CE76D83C
:101230001092300280912B0290912C029DCE109240
:101240002C0210922B028F2DCAD96ACEE1E0F0E079
:10125000F0936100E093600010922F0280912B02C6
:1012600090912C0289CE4FD881E0809330028091FA
:101270002B0290912C0280CE21E030E030932C02A2
:1012800020932B024DCE80912D0290912E027ED87C
:101290008CCE0F93083090F0982F872F762F652FE4
:1012A000542F432F322F22270850F4CF220F331F01
:1012B000441F551F661F771F881F991F0A95B2F795
:1012C0000F91089597FB10F8169400080F930830BB
:1012D00098F00850232F342F452F562F672F782F43
:1012E000892F902DF4CF05949795879577956795DD
:1012F00057954795379527950A95AAF70F91089521
:101300002A0D3B1D4C1D5D1D6E1D7F1D801F911FF5
:1013100008952A193B094C095D096E097F09800B64
:10132000910B0895AEE0B0E0E7E9F9E0AAC20D89BB
:101330001E8986E08C831A8309838FEF9FE79E8343
:101340008D83AE01475E5F4F6F89788DCE01019628
:1013500008D0EF81F885E00FF11F10822E96E4E0AF
:10136000ACC2ABE0B0E0E6EBF9E07DC26C017B0122
:101370008A01FC0117821682838181FFBFC1CE01E1
:1013800001963C01F6019381F70193FD859193FF4E
:1013900081917F01882309F4ADC1853239F493FD31
:1013A000859193FF81917F01853221F4B60190E010
:1013B000C0D1E8CF912C212C312CFFE1F315D8F0CE
:1013C0008B3279F038F4803279F08332A1F4232D16
:1013D00020611DC08D3261F0803369F4232D2160BE
:1013E00016C0832D8260382EE32DE4603E2E2AC085
:1013F000F32DF8601DC037FC2DC020ED280F2A30DA
:1014000040F08E32B9F436FC75C1232D2064322EA3
:1014100019C036FE06C08AE0989E200D1124922E37
:1014200011C0EAE02E9E200D1124222EF32DF06231
:101430003F2E08C08C3621F4832D8068382E02C0E0
:10144000883641F4F70193FD859193FF81917F01E7
:101450008111B3CF982F9F7D9554933028F40C5F62
:101460001F4F9FE399830DC0833631F0833771F0AE
:10147000833509F055C020C0F801808189830E5F53
:101480001F4F88248394912C530112C02801F2E04D
:101490004F0E511CF801A080B18036FE03C0692DAB
:1014A00070E002C06FEF7FEFC50138D14C018201BF
:1014B000F32DFF773F2E15C0280122E0420E511C6C
:1014C000F801A080B18036FE03C0692D70E002C033
:1014D0006FEF7FEFC50117D14C01F32DF0683F2E60
:1014E000820133FC19C0822D90E088169906A0F481
:1014F000B60180E290E01DD12A94F5CFF50137FCCA
:10150000859137FE81915F01B60190E012D12110E3
:101510002A9421E0821A91088114910479F7E1C09C
:10152000843611F0893639F5F80137FE07C060813D
:101530007181828193810C5F1F4F08C0608171812E
:10154000072E000C880B990B0E5F1F4FF32DFF76B3
:101550003F2E97FF09C090958095709561957F4FBC
:101560008F4F9F4FF0683F2E2AE030E0A3011DD13E
:10157000882E861844C0853731F4232D2F7EB22E55
:101580002AE030E025C0932D997FB92E8F36C1F027
:1015900018F4883579F0AEC0803719F0883721F01B
:1015A000A9C0E92FE061BE2EB4FE0DC0FB2DF46092
:1015B000BF2E09C034FE0AC0292F2660B22E06C0F5
:1015C00028E030E005C020E130E002C020E132E058
:1015D000F801B7FE07C060817181828193810C5F41
:1015E0001F4F06C06081718180E090E00E5F1F4F49
:1015F000A301DBD0882E8618FB2DFF773F2E36FE09
:101600000DC0232D2E7FA22E891458F434FE0BC05A
:1016100032FC09C0832D8E7EA82E05C0B82CA32CC9
:1016200003C0B82C01C0B92CA4FE0FC0FE01E80D08
:10163000F11D8081803321F49A2D997EA92E09C055
:10164000A2FE06C0B394B39404C08A2D867809F034
:10165000B394A3FC10C0A0FE06C0B21480F4280C02
:10166000922C9B180DC0B21458F4B60180E290E0A1
:1016700060D0B394F8CFB21418F42B1802C0982C91
:10168000212CA4FE0FC0B60180E390E052D0A2FE50
:1016900016C0A1FC03C088E790E002C088E590E096
:1016A000B6010CC08A2D867851F0A1FE02C08BE2F3
:1016B00001C080E2A7FC8DE2B60190E03AD0891427
:1016C00030F4B60180E390E034D09A94F8CF8A9455
:1016D000F301E80DF11D8081B60190E02AD0811060
:1016E000F6CF222009F44ECEB60180E290E021D060
:1016F0002A94F7CFF6018681978102C08FEF9FEF82
:101700002B96E2E1CCC0FC010590615070400110C5
:10171000D8F7809590958E0F9F1F0895FC0161501A
:10172000704001900110D8F7809590958E0F9F1F03
:1017300008950F931F93CF93DF93FB01238121FD26
:1017400003C08FEF9FEF2CC022FF16C04681578148
:10175000248135814217530744F4A081B1819D0152
:101760002F5F3F4F318320838C93268137812F5FFA
:101770003F4F3783268314C08B01EC01FB010084AB
:10178000F185E02D0995892BE1F6D80116968D910A
:101790009C911797019617969C938E931697CE015E
:1017A000DF91CF911F910F910895FA01AA27283058
:1017B00051F1203181F1E8946F936E7F6E5F7F4F1E
:1017C0008F4F9F4FAF4FB1E03ED0B4E03CD0670F9A
:1017D000781F891F9A1FA11D680F791F8A1F911DED
:1017E000A11D6A0F711D811D911DA11D20D009F43D
:1017F00068943F912AE0269F11243019305D31937F
:10180000DEF6CF010895462F4770405D4193B3E067
:101810000FD0C9F7F6CF462F4F70405D4A3318F00E
:10182000495D31FD4052419302D0A9F7EACFB4E0BF
:10183000A6959795879577956795BA95C9F7009777
:101840006105710508959B01AC010A2E0694579518
:10185000479537952795BA95C9F7620F731F841F6F
:10186000951FA01D08952F923F924F925F926F9205
:101870007F928F929F92AF92BF92CF92DF92EF9220
:10188000FF920F931F93CF93DF93CDB7DEB7CA1BA1
:10189000DB0B0FB6F894DEBF0FBECDBF09942A88CC
:1018A000398848885F846E847D848C849B84AA8474
:1018B000B984C884DF80EE80FD800C811B81AA8101
:1018C000B981CE0FD11D0FB6F894DEBF0FBECDBFCC
:0818D000ED010895F894FFCF2B
:1018D800010080000000000000000000000000007F
:1018E80000000000000000000000000000000000F0
:1018F80000000000000000000000000000000000E0
:1019080000000000000000000000000000000000CF
:1019180000004550524F4D20456D756C61746F72D3
:101928000A412E4B2E20323032340A436F6D6D61DE
:101938006E64733A0A00093F202D20746869732089
:1019480068656C700A000921202D20636C61696D3F
:10195800206275732C206D656D6F727920656469DE
:10196800742C20617373657274202F5253540A00CB
:10197800092E202D2072656C656173652062757370
:101988002C206465617373657274202F5253540A56
:10199800000940202D2073657420616464726573AA
:1019A80073206D6F64650A000923202D2073657408
:1019B8002064617461206D6F64650A00093D202D03
:1019C8002064756D70203235362062797465732015
:1019D800406164647265730A000974202D206D6586
:1019E8006D6F727920746573740A00092B202D209D
:1019F8006563686F206F6E0A00092D202D206563CE
:101A0800686F206F66660A000973202D20636C6575
:101A18006172206D656D6F72792028616C6C203061
:101A2800786666290A000972202D2072657365742C
:101A380020746172676574202870756C7365202F37
:101A4800525354290A004661696C20403078253089
:101A5800347820286578706563746564203078254B
:101A68003032782C20676F7420307825303278290E
:101A78000A00253034783A20002C200025303278AE
:101A88002573006D64353A200025303278004D65A5
:0A1A98006D6F7279204F4B0A0000B9
:00000001FF
